:020000020000FC
:20000000008400141001483A10BFF80400BFFD16004000B4084091140800683A000000008D
:20000800DEFFED04DFC00015D8400215D8800315D8C00415D9000515D9400615D98007156A
:20001000D9C00815000B307ADA000915DA400A15DA800B15DAC00C15DB000D15DB400E15C4
:20001800DB800F15DBC01015D9401115EBFFFF04DBC012150009313A2880004C10000326FA
:200020002000022600200FC000000706DF401215E8BFFF17E93FFF0400201D001000021EE1
:20002800EBFFFF04DBC01215D9401117DF401217DFC000172801707AD8400217D880031714
:20003000D8C00417D9000517D9400617D9800717D9C00817DA000917DA400A17DA800B17F2
:20003800DAC00C17DB000D17DB400E17DB800F17DBC01017DEC01304EF80083ADEFFF90429
:20004000DFC00615DF000515DF0005040001883A0005313AE0BFFE15E0BFFE17E0BFFB15BD
:20004800E03FFD1500800044E0BFFC15E0FFFB17E0BFFC171884703A10001426008000F44C
:2000500010A3A904E0FFFD17180690FA10C5883A10C00017008000F410A3A904E13FFD170F
:20005800200890FA1105883A10800104108000171009883A183EE83A0001883A0005313A3C
:20006000E0BFFF15E0BFFF1700000706E0BFFC171085883AE0BFFC15E0BFFD1710800044CB
:20006800E0BFFD15003FE106E0BFFB15E0BFFB17103FDB1E0001883A0001883AE037883A9A
:20007000DFC00117DF000017DEC00204F800283ADEFFFB04DFC00415DF000315DF00030454
:20007800E13FFF15000531FAE0BFFD15E0BFFD1710801F0C1004D0BAE0BFFD150005333A24
:20008000E0BFFE15D0A6B31710000726D0A6B317E0FFFD17E1BFFE17E17FFF171809883AF0
:20008800103EE83A00000206003DA03A0005883AE037883ADFC00117DF000017DEC00204D8
:20009000F800283A008200141000003310BFF80400BFFD1606C00134DEC00014068000B499
:20009800D6BCEB14008000B410A3941400C000B418E3E91410C00326100000151080010409
:2000A00010FFFD36002355C000236F00003FFF06DEFFFC04DFC00315DF000215DF00020481
:2000A800010000B42116250400204E800080C084E0BFFF15E0FFFF1700800134108400047C
:2000B00010C000350001883A0080013410840404108000371080008C103FFB26010000B40F
:2000B80021162B0400204E80E0BFFF1710800114E0BFFF15E0FFFF17008001341084000485
:2000C00010C000350001883A0080013410840404108000371080010C103FFB26010000B47E
:2000C8002116320400204E80008001341084000410800037E0BFFF1500C0157418C48D0440
:2000D000008001341084140410C00035E0BFFF1710800214E0BFFF15E0FFFF1700800134F2
:2000D8001084000410C000350001883A0080013410840404108000371080040C103FFB2680
:2000E0000007883A008001341084040410C00035010000B42116390400204E80E0BFFF1715
:2000E80010800054E0BFFF15E0FFFF1700BFFDC41884703AE0BFFF15E0FFFF170080013449
:2000F0001084000410C00035010000B421163F0400204E80E03FFE1500000306E0BFFE1747
:2000F80010800044E0BFFE15E0BFFE1710803210103FFA1E00C00044008001341084200404
:2001000010C00035010000B42116480400204E800005883AE037883ADFC00117DF00001767
:20010800DEC00204F800283ADEFFF604DC0007152021883A2809883ADC400815DFC009151E
:200110002823883A00204FC010C00044D8800115008000B410964F04D880021500800044B1
:20011800D880031500800084DC400015D8C00615DEC00415D88005158000022680800E1779
:2001200010001426814002172880030B10C8000C1800061E2900191700F7FFC41088001406
:2001280020C6703A2880030D28C01915D98004048009883A002093401000091E008002847D
:20013000DFC00917DC400817DC000717DEC00A04F800283A8009883A00208E40003FE9064E
:2001380000BFFFC4003FF606008000B4109CEC04200B883A1100001700204281208000CCB6
:200140001000202620800007100020262005883A0000020610C0000718001826108000445C
:2001480010C000CC183FFB1E10C0001701FFBFF439FFBFC400CA303A01A0207419C7883A2B
:2001500031A020041946703A1986703A1800091E1080010410C0001719CB883A00C6303AB7
:2001580028C6703A1986703A183FF926000001061080004410C00007183FFD1E1105C83AF4
:20016000F800283A2005883A003FE7060005883AF800283A0005883AF800283A014000B4DB
:2001680029494C040020EB41DEFFF70400C000B4DFC00815DDC00715DD800615DD400515F9
:20017000DD000415DCC00315DC800215DC400115DC00001518C167042400011720C00F15AB
:200178002080BB0400C000C420C0B9152080BA152000B81505C00204008001042025883A23
:20018000B80D883A81001704000B883A8000001580000115800002158080030D80001915EF
:200188008000038D8000041580000515800006150021B0C0058000B494400217054000B4C9
:20019000050000B404C000B4B5887B04AD489204A508B1049CC8C804858008158540091540
:2001980085000A1584C00B1584000715008002848880030D00800044B80D883A8900170492
:2001A000000B883A880000158800011588000215880019158880038D880004158800051507
:2001A800880006150021B0C094000317008004848C4007158D8008158D4009158D000A15A4
:2001B0008CC00B158080030D00800084800000158000011580000215800019158080038DAF
:2001B800800004158000051580000615B80D883A000B883A810017040021B0C00080004414
:2001C00084000715858008158540091585000A1584C00B1590800E15DFC00817DDC00717C6
:2001C800DD800617DD400517DD000417DCC00317DC800217DC400117DC000017DEC009046F
:2001D000F800283A0005883AF800283ADEFFFC04DC4001152C7FFFC48C401A24DC8002159A
:2001D8002825883A89401D04DC000015DFC003150020F7801021883A100007261100030487
:2001E00010000015148001151100021589801A04000B883A0021B0C08005883ADFC0031783
:2001E800DC800217DC400117DC000017DEC00404F800283ADEFFFB04DC000015040000B4D6
:2001F000841CEB04DCC003152027883A81000017DFC00415DC80021520800E17DC400115E9
:2001F8001000021E00205A80810000172480B804047FFFC49100011794000217213FFFC406
:2002000020000A168080030F10000C2680C01D040000020618BFE60F10000826213FFFC4B4
:200208001C3FFD0418C01A04247FFA1E9080001710001D261025883A003FEE0600BFFFC4A3
:200210008080038D008000448080030D800019158000001580000215800001158000041561
:20021800800005158000061501800204000B883A810017040021B0C08005883A80000C1528
:2002200080000D158000111580001215DFC00417DCC00317DC800217DC400117DC000017C3
:20022800DEC00504F800283A014001049809883A002074C090800015103FDE1E00800304C1
:20023000988000150005883A003FF006008000B4109CEB0411000017014000B429494C04D7
:200238000020EB4120800E1710000126F800283A00205A81F800283AF800283AF800283AFB
:20024000F800283A008000B4109CEC0411000017014000B42941D1040020DF01008000B4E4
:20024800109CEC0411000017014000B4294165040020DF01308002171000672628C0030BAE
:20025000DEFFF404DD400715DD000615DC000215DFC00B15DF000A15DDC00915DD800815A3
:20025800DCC00515DC800415DC4003151880020C2821883A202B883A3029883A10002726F1
:2002600028800417100025261880008CA440001710002A2605A000340027883A0025883A38
:20026800B5BF0004980D883AA809883A90004626900F883AB480022E01E0003439FF000412
:200270008080091781400717103EE83A0080570EA0C0021798A7883A90A5C83A1885C83ACA
:20027800A0800215103FEF1E0005883ADFC00B17DF000A17DDC00917DD800817DD400717D7
:20028000DD000617DCC00517DC800417DC400317DC000217DEC00C04F800283A800B883AB5
:20028800A809883A002238801000EB1E80C0030BA44000171880008C103FD61E1880004C5C
:2002900010003F1E0039883A0025883A90001A261880800C84C0021710002126982F883ACE
:2002980094C093361881200C10009E1E81000017B80D883AE00B883A00219B0080C00217B7
:2002A000810000179005883A1CE7C83A25CF883A84C0021581C00015A0C00217E0B9883A0F
:2002A80090A5C83A18A7C83AA4C00215983FCE2680C0030B903FE61E8F0000178C8001170D
:2002B0008C400204003FE1068CC000178C8001178C400204003FB3060005883AF800283AC4
:2002B80081000017808004171100573685C0051795C0553600A0003410BFFFC49009883AD3
:2002C0001480012E1009883AB80B883A002303C015CF383A8140071780800917E00D883A11
:2002C800A809883A103EE83A00BFDB168080030B108010148080030D00BFFFC4003FAB063F
:2002D0000027883A0011883A0039883A0025883A90001F2640005A26982D883A94C0012ED1
:2002D800902D883A8100001780800417B02F883A81C005171100032E80C0021738C7883A7A
:2002E0001D801816B1C03E168080091781400717E00D883ADA000115A809883A103EE83AED
:2002E800102F883ADA00011700BFE00E9DE7C83A98001F26A0800217E5F9883A95E5C83A9E
:2002F00015EFC83AA5C00215B83F8726903FE11E8F0000178C8001170011883A8C4002048B
:2002F800003FDB06180D883AE00B883ADA000115D8C0001500219B00D8C000178080001713
:20030000800B883AA809883A10C5883A80800015D8C0001500228500D8C00017DA0001177C
:20030800103FC21E182F883A9DE7C83A983FE11E800B883AA809883A00228500103FBB1EB2
:200310000011883A003FDB0694C0012E9027883A980D883AE00B883A00219B0080800217F5
:2003180080C0001714C5C83A1CC7883A8080021580C00015100043269805883A003F8606DF
:20032000B00D883AE00B883ADA00011500219B008080021780C00017DA0001171585C83AE7
:200328001DAD883A8080021585800015003FBF06810000179027883A902F883A003F6C06B1
:20033000900D883A01400284E009883A0021784010003E26108000441727C83A0200004435
:20033800003F9D06808005178140041781C0001710A7883A9885883A1026D7FA396DC83A6C
:20034000B10000449885883A1027D07A2485883A980D883A9880022E1027883A100D883A56
:2003480018C1000C18001C26300B883AA809883A0020F780102F883A100029268140041713
:20035000B00D883A1009883A002186808080030B00FEDFC410C4703A108020148080030D0B
:20035800BD89883A9D8FC83A85C0041584C00515810000159027883A81C00215902F883AAB
:20036000003F3B06800B883AA809883A00228500103FB926003F6506A809883A0021C34027
:20036800102F883A103FEE1E81400417A809883A0022A0008080030B00FFDFC41884703A12
:2003700000C00304A8C00015003F590694C0004402000044003F600600BFFFC4003F03063E
:2003780000800304A88000158080030B003F5006DEFFF704DD000415DFC00815DDC00715BB
:20038000DD800615DD400515DCC00315DC800215DC400115DC0000152500B804A00023269A
:20038800282B883A002F883A0580004404FFFFC4A4400117A48002178C7FFFC488000D160E
:2003900094000304948003848080000B8C7FFFC4813FFD04B080042E9080000F14C0022600
:20039800A83EE83AB8AEB03A84001A0494801A048CFFF51EA5000017A03FED1EB805883A56
:2003A000DFC00817DDC00717DD800617DD400517DD000417DCC00317DC800217DC400117BA
:2003A800DC000017DEC00904F800283A002F883A003FF206DEFFF704DD000415DFC008158B
:2003B000DDC00715DD800615DD400515DCC00315DC800215DC400115DC0000152500B8049A
:2003B800A0002326282B883A2027883A002F883A0580004404BFFFC4A4400117A400021725
:2003C0008C7FFFC488000C16840003048080000B8C7FFFC4817FFD04B080052E8080008F4E
:2003C8009809883A14800226A83EE83AB8AEB03A84001A048CBFF51EA5000017A03FEE1EF7
:2003D000B805883ADFC00817DDC00717DD800617DD400517DD000417DCC00317DC8002173F
:2003D800DC400117DC000017DEC00904F800283A002F883A003FF206DEFFF504DC80031567
:2003E000DFC00A15DF000915DDC00815DD800715DD400615DD000515DCC00415DC400215F8
:2003E800DC000115288002C400C005842025883A18807F2E047FFE041462703A8800A3161A
:2003F0008940A236002376C000807DC41441E92E8804D27A1000A12600C0010418811E3665
:2003F8008804D1BA12000E4411C00E044209883A04C000B42109883A9CD767042109883A4C
:200400009909883A24000117213FFE04240097268080011701BFFF04014003C41184703AD7
:200408001447C83A28C007161800920E8400031724008E26808001171184703A1447C83A90
:2004100028FFF90E3809883A018000B49C00041731976704320002048201342680C001170F
:2004180000BFFF04188E703A3C45C83A00C003C418811F16320005153200041510007F0EA6
:2004200000807FC411C0FD363806D0FA01C000443080011719400044294B883A1807D0BAA4
:20042800294B883A294B883A298B883A38C6983A29C000172A7FFE041886B03A82400315F5
:2004300081C0021530C001152C0000153C0003152005D0BA01400044288A983A19406F3603
:2004380028C4703A10000A1E00BFFF04294B883A2088703A28C4703A210001041000041E9E
:20044000294B883A28C4703A21000104103FFC2602BFFF04024003C421800044318D883A07
:20044800318D883A318D883A998D883A333FFE042017883A318001043400001731FFFD040D
:2004500081C0041E0000FB061801030E8400031781C0F826808001171284703A1447C83A4C
:2004580048FFF90E8080031781000217894000548140011520800315110002158463883A05
:200460009C4005159C40041518800054888001158A0003158A00021588E3883A88C00015BA
:200468009009883A002379008080020400001B060440040489402536002376C00080018488
:200470000100008404C000B41085883A9CD767041085883A9885883A1400011710FFFE04C7
:2004780080C0D92680C001178100031700BFFF041884703A814002178085883A10C00117A1
:20048000290003152140021518C0005410C001159009883A0023790080800204DFC00A17D4
:20048800DF000917DDC00817DD800717DD400617DD000517DCC00417DC800317DC40021789
:20049000DC000117DEC00B04F800283A00800304908000150005883A003FF0060100200484
:200498000200100401C00FC4003F61064009883A003F750681000317003FDE0681C5883A69
:2004A000114001179009883A29400054114001150023790080800204003FE0069C000217D8
:2004A80000BFFF0485800117B0AC703AB4400336B445C83A00C003C418805D1605C000B41C
:2004B000008000F410A39604BDDCED0415400017B8C0001700BFFFC4858D883A8D6B883AD6
:2004B8001880EA26AD4403C400BC0004A8AA703AA80B883A9009883AD9800015002219800F
:2004C0001029883A00BFFFC4D9800017A080E826A180A636070000F4E7239F04E0800017E5
:2004C800A887883AE0C000153500E626B900001700BFFFC42080EE26A185C83A10C5883A68
:2004D000E0800015A0C001CC1800BC26A0E9C83A00840204A500020410C7C83AA545883A2B
:2004D8001083FFCC18ABC83AA80B883A9009883A0022198000FFFFC410C0E1261505C83AA1
:2004E0001545883A10800054E0C000179D000215A0800115A8C7883AE0C0001584C00E26FD
:2004E800018003C43580A72E81400117013FFE04B0BFFD041104703A2900004C2088B03AD1
:2004F00081000115014001448089883A21400115214002153080CD36008000F410A39504A2
:2004F8001100001720C0012E10C00015008000F410A39404110000179C00021720C0012E1D
:2005000010C0001580C0011700BFFF041886703A1C45C83A1C40023600C003C41880041664
:200508009009883A002379000005883A003F7B0688C0005480C001158463883A10800054D6
:200510009C400215888001159009883A0023790080800204003F710600C0050418804A2E2E
:2005180000C0150418806E368804D33A12001BC411C01B844209883A003EDD063804D27AFE
:2005200000C001041880442E00C00504188081361140170410C016C4294B883A294B883A52
:20052800294B883A994B883A28800017018000B4297FFE04319767042880652601BFFF0410
:2005300010C001171986703A38C0022E1080021728BFFB1E1140031798C0011781400315F5
:20053800808002152C00021514000315003EF80688C0005480C001158463883A34400515B8
:200540003440041510C000548A0003158A00021588C0011588A3883A888000159009883AE4
:200548000023790080800204003F3C0630C00117003EE7065AC00044588000CC3180020484
:20055000103EFD1E0000240614000317143F251E21000084003EBC068085883A10C00117E0
:20055800810003178140021718C0005410C0011529000315214002159009883A002379004C
:2005600080800204003F25061200170411C016C44209883A003E96063804D1BA11400E44E2
:2005680010C00E04294B883A003FBC0684FF5926008000B4109767041400021700BFFF0423
:2005700080C001171886703A003F910660800217213FFFC41300651E208000CC633FFE0433
:20057800103FFA1E988001170146303A1884703A98800115294B883A117F2836283F2726CF
:200580002886703A5809883A183EC31E294B883A2886703A21000104183FFC26003EBE067A
:2005880000C05504188012368804D3FA12001E0411C01DC44209883A003E6D0600C4000495
:20059000003F460600800044A0800115003F74061805D0BA01C0004430C00117388E983AC1
:200598002805883A38C6B03A30C00115003F9B0600C1550418801A368804D4BA12001F44F5
:2005A00011C01F044209883A003E5906AD400404003F170600C01504188023363804D33A39
:2005A80011401BC410C01B84294B883A003F7B069C00021700BFFF0480C001171886703A87
:2005B000003F53063083FFCC103F181E99000217B545883A1080005420800115003F3E0605
:2005B80001003F8402001FC401C01F84003E4006008000B4109CED0415000015003F110641
:2005C00000800044002B883A003F1F06814002049009883A0022A000008000F410A39F0458
:2005C80010C00017003F2C0600C05504188005363804D3FA11401E0410C01DC4294B883A6C
:2005D000003F560600C15504188005363804D4BA11401F4410C01F04294B883A003F4F0648
:2005D80001403F8400C01F84003F4C0698800117003FA0068808D0FA208000441085883A61
:2005E000003E9006208000CC280F883A1000342630BFFFC430001A2620C0000329803FCC9F
:2005E80030C0051E000018061000152620C0000310BFFFC430C014262100004420C000CCC7
:2005F000183FF91E020000C44080113610000C2620C0000329403FCC28C00B2620C00044DA
:2005F80039803FCC2089883A0000030618C00044197FFFC3314005261805883A20FFFB1E82
:200600000005883AF800283A2005883AF800283A28C03FCC1812923A02FFBFF402A02074A5
:2006080048D2B03A4806943A5AFFBFC452A0200448D2B03A20C0001748C6F03A1ACD883AE4
:2006100000C6303A30C6703A1A86703A183FE01E10BFFF042100010440BFF636003FDB0618
:200618003005883A003FD706DEFFFD04DFC00215DC400115DC00001500C003C42005883A8A
:200620001980452E2906B03A18C000CC1800441E347FFC048822D13A28C0010423400104BA
:200628008820913A2B00020422C00204840005042A800304224003042C21883A2811883A75
:20063000200F883A410000171FC0001763C0001739000015538000176FC000155BC0001585
:200638004B80001518C0040439C00404420004046B400404630004045AC00404528004047D
:200640004A4004041C3FEF1E89C00044380E913A310003CC02C000C411C7883A29CB883A2C
:200648005900212E1813883A2811883A200F883A428000174A40010439FFFF044ABFFF1551
:200650004200010459FFFA36213FFF042008D0BA318000CC210000442109883A2109883AEC
:200658001907883A290B883A30000626198D883A29C0000318C000442940004419FFFFC555
:2006600019BFFB1EDFC00217DC400117DC000017DEC00304F800283A2007883A003FF2068B
:200668002007883A003FF106200D883A003FEE062005883A29000B2E298F883A21C0092E56
:200670002187883A198BC83A3000482639FFFFC43900000318FFFFC41900000528FFFB1E4D
:20067800F800283A00C003C41980412E2886B03A18C000CC1800401E33FFFC04781ED13AF4
:2006800028C0010413400104781C913A2B00020412C00204738005042A80030412400304A7
:200688002B9D883A2811883A100F883A4100001739C0040418C00404393FFC15193FFC17BF
:200690006B4004045AC00404693FFC15610000174A40040442000404593FFC155100001757
:200698006300040452800404493FFC151BBFEF1E790000442008913A328003CC02C000C4C6
:2006A0001107883A290B883A5A801E2E1813883A2811883A500F883A410000174A40010454
:2006A80039FFFF04493FFF154200010459FFFA36513FFF042008D0BA318000CC2100004465
:2006B0002109883A2109883A1907883A290B883A30000B26198D883A29C0000318C00044A9
:2006B8002940004419FFFFC519BFFB1EF800283A1007883A003FF6061007883A003FF50627
:2006C000F800283A500D883A003FF10620C000CC2005883A1800442631FFFFC430004026CD
:2006C8002813883A200D883A2007883A000004063A3FFFC43180004438003926400F883A5A
:2006D00018C00044324000051A0000CC403FF81E010000C421C02D2E29003FCC200C923ACF
:2006D8003108B03A200C943A218CB03A010003C421C0182E3B3FFC046018D13A1A00010443
:2006E0001AC002046008913A1A8003041813883A210005041909883A498000154180001597
:2006E8005980001551800015420004044A4004045AC0040452800404413FF71E630000440A
:2006F0006018913A39C003CC010000C41B07883A21C00E2E1813883A3811883A010000C45C
:2006F80049800015423FFF044A400104223FFC36393FFF042008D0BA39C000CC2100004407
:200700002109883A2109883A1907883A3800052619CF883A1940000518C0004438FFFD1E46
:20070800F800283AF800283A2007883A300F883A003FC706DEFFF604DC800215DFC0091520
:20071000DF000815DDC00715DD800615DD400515DD000415DCC00315DC400115DC00001598
:200718003025883A2800B726282B883A2029883A002376C0A8BFFF17043FFF0490C002C453
:2007200001000584ACFFFE041420703A20C0332E047FFE041C62703A8807883A880058166F
:200728008C80573680C0300E070000B4E7176704E1C002179C09883A2200011721C06326B1
:20073000017FFF84414A703A214B883A298001173180004C30003F261080004C100083265B
:20073800900B883AA009883A0020F7801025883A10011E26A93FFF1710FFFE0400BFFF84A5
:200740002084703A9885883A1880EE2681BFFF04008009041180B83600C004C41980963684
:200748009005883AA807883A1900001711000015190001171100011518C0021710C0021543
:20075000A80B883AA009883A0022A000A009883A002379009005883A0000120600C00404A9
:200758001823883A003FCE06A825883A8445C83A00C003C418802636998001179C07883A06
:200760003180004C3420B03A9C000115188001171080005418800115A009883A0023790043
:200768009005883ADFC00917DF000817DDC00717DD800617DD400517DD000417DCC0031741
:20077000DC800217DC400117DC000017DEC00A04F800283A017FFF04414A703A814D883A7F
:2007780030C01F162080031720C00217A825883A3021883A1880031510C00215003FDB0630
:2007800000800304A08000150005883A003FE50698C001179C4B883A1100005418C0004C0A
:200788001C62B03A9C400115290001152885883A10C0011729400204A009883A18C000545B
:2007900010C001150022A000003FD306017FFF04414A703A898004048151883A4180590E04
:200798001080004C103F9E1EADBFFE1700BFFF049DADC83AB18001173084703A20002026BE
:2007A00080AF883AB96F883A21C05F26B8C01C162080031720C0021781BFFF04010009044A
:2007A8001880031510C00215B0C00217B0800317B48002041880031510C0021521801B3604
:2007B000008004C41180352EA8800017B0800215A8800117B0800315008006C411807F364F
:2007B800B0800404AD40020400002D06ADBFFE1700BFFF049DADC83AB10001172084703A1D
:2007C000B03F772680AF883AB8FF7516B0800317B0C0021781BFFF04010009041880031586
:2007C80010C00215B480020421BFE52EA80B883A9009883A00219B00B821883AB027883A3D
:2007D000003F8A06300B883ADFC00917DF000817DDC00717DD800617DD400517DD0004171A
:2007D800DCC00317DC800217DC400117DC000017DEC00A040020F781A8C0001790C0001587
:2007E000A8C0011790C0011500C006C41980453690800204A8C00204003F63069005883AF2
:2007E800A8C00017B821883AB027883A10C00015A8C0011710C00115A8C0021710C002158B
:2007F000003F6A069C67883A4445C83AE4C002151080005498800115A8BFFF17A009883A35
:2007F8001080004C1462B03AAC7FFF1500237900A805883A003F6B06A80B883A9009883ADB
:2008000000219B00003F4E0689000404B93FBC16B0800317B0C0021781BFFF04010009040A
:200808001880031510C00215B480020421804336008004C411803F2EA8800017B080021519
:20081000A8800117B0800315008006C411803F36B0800404AD400204A8C0001710C0001561
:20081800A8C0011710C00115A8C0021710C00215B447883ABC45C83AE0C002151080005497
:2008200018800115B0800117A009883A1080004C1462B03AB4400115002379009005883A1E
:20082800003F4006A8C0021790C00215A8C0031790C003153080112690800404A8C00404EA
:20083000003F190690FFFF1700BFFF04A825883A1884703A80A1883A003F2406A880021781
:20083800B0800415A8800317B080051531000A26B0800604AD400404003FA906A900041789
:2008400090800604A8C0060491000415A900051791000515003F0406A8C00417AD4006042F
:20084800B0800804B0C00615A8FFFF17B0C00715003F9B069005883A003FC706A80B883AC8
:200850009009883A00219B00003FC906A8800217B0800415A8800317B080051531000726EF
:20085800B0800604AD400404003FBB06A009883A002379000005883A003F0A06A8C00417B1
:20086000AD400604B0800804B0C00615A8FFFF17B0C00715003FB006DEFFFD04DC000015AD
:20086800040000F4DC400115842397042023883A2809883ADFC00215800000150023950009
:2008700000FFFFC410C00526DFC00217DC400117DC000017DEC00304F800283A80C0001776
:20087800183FF92688C00015003FF706DEFFFE04DC0000152821883A2940038FDFC00115C6
:200880000022F2C01000071680C014171887883A80C01415DFC00117DC000017DEC00204D4
:20088800F800283A80C0030B18FBFFCC80C0030DDFC00117DC000017DEC00204F800283AD2
:200890000005883AF800283A2880030BDEFFFB04DCC00315DC800215DC400115DC0000154B
:20089800DFC0041510C0400C2821883A2023883A3025883A3827883A180005262940038FE6
:2008A00001C00084000D883A0022D1008080030B8140038F10BBFFCC980F883A900D883A72
:2008A8008809883A8080030DDFC00417DCC00317DC800217DC400117DC000017DEC005041A
:2008B00000223281DEFFFE04DC0000152821883A2940038FDFC001150022D10000FFFFC413
:2008B80010C0082680C0030B8080141518C4001480C0030DDFC00117DC000017DEC002041D
:2008C000F800283A80C0030B18FBFFCC80C0030DDFC00117DC000017DEC00204F800283A9A
:2008C8002940038F00224DC1DEFFFD042805883ADC000015040000F4DC400115300B883A00
:2008D000842397042023883A380D883A1009883ADFC00215800000150023A3C000FFFFC44C
:2008D80010C00526DFC00217DC400117DC000017DEC00304F800283A80C00017183FF9265A
:2008E00088C00015003FF706008000B4DEFFFD04109CEC04DC4001152023883A1100001752
:2008E800DC000015DFC002152821883A2000022620800E17100031268080030B10C0020CDE
:2008F0001009883A18000F2680C00417180015261100004C20001C1E1080008C1000291EE8
:2008F800808005178080021518001C260005883ADFC00217DC400117DC000017DEC0030408
:20090000F800283A2080040C10002E262080010C10001E1E80C00417208002148080030D4F
:20090800183FEB1E1100A00C01408004217FE826800B883A8809883A0022D7008080030B98
:2009100080C00417003FE20680800517800002150085C83A80800615183FE41E80C0030B49
:200918000005883A1900200C203FE12618C0101480C0030D00BFFFC4003FDD0600208E406F
:20092000003FCD060005883A003FD60681400C172800062680801004288003268809883A53
:200928000022A0008100030B80000C1580C0041700BFF6C41108703A8000011580C000153B
:20093000003FD5060080024488800015208010148080030D00BFFFC4003FC506DEFFFD046C
:20093800DC000015040000F4DC400115842397042023883A2809883ADFC0021580000015FF
:20094000002322C000FFFFC410C00526DFC00217DC400117DC000017DEC00304F800283AF7
:2009480080C00017183FF92688C00015003FF70628003926DEFFFC04DC400115DC000015A2
:20095000DFC00315DC8002152023883A2821883A2000022620800E17100027268080030FD1
:200958001000071E0005883ADFC00317DC800217DC400117DC000017DEC00404F800283A2E
:20096000800B883A8809883A002263401025883A80800B1710000426814007178809883A8D
:20096800103EE83A100016168080030B1080200C1000151E81400C1728000526808010046B
:20097000288002268809883A0022A00080000C1581401117280003268809883A0022A00092
:200978008000111500208F408000030D00208F809005883A003FDC0600208E40003FD70689
:2009800004BFFFC4003FE806814004178809883A0022A000003FE7060005883AF800283A66
:20098800008000B4109CEC04200B883A11000017002253012880030BDEFFFB04DCC00315AE
:20099000DC400115DFC00415DC800215DC00001510C0020C2823883A2027883A1800311E9E
:2009980028C00117108200142880030D00C04B0E8A000A17400023269C00001710C4000C01
:2009A00098000015180048268980141710C0010C1800062688C0011788800C1730CDC83A25
:2009A8001000022688800F17308DC83A89400717000F883A9809883A403EE83A00FFFFC48D
:2009B00010C0442688C0030B8900041788000115197DFFCC8940030D8900001518C4000C95
:2009B80018002C1E89400C179C0000152800052688801004288002269809883A0022A000BC
:2009C00088000C150005883ADFC00417DCC00317DC800217DC400117DC000017DEC00504F4
:2009C800F800283A2C800417903FF6262C000017108000CC2C80001584A1C83A1000131E3B
:2009D000288005178880021504000316003FED0690A5883A043FEB0E888009178940071793
:2009D800800F883A900D883A9809883A103EE83A80A1C83A00BFF61688C0030B00BFFFC4B6
:2009E00018C0101488C0030D003FDF060005883A003FEC0688801415003FD20628C00F1731
:2009E80000FFB316003FD70689400717000D883A01C000449809883A403EE83A100D883A6E
:2009F00000BFFFC4308014268880030B8A000A17003FAE0698C00017183FBA2601000744D5
:2009F80019000626010005841900042688C0030B18C0101488C0030D003FC3068880030B05
:200A000088C004178800011510BDFFCC8880030D88C00015003FB30698800017103FEA2642
:200A080000C0074410C0022600C0058410C0031E9C0000150005883A003FB30688C0030BCB
:200A10003005883A18C0101488C0030D003FAE06DEFFFD04DC000115DFC002152021883AFF
:200A18002000022620800E1710000C262880030F1000051E0005883ADFC00217DC0001170F
:200A2000DEC00304F800283A8009883ADFC00217DC000117DEC0030400226341D940001527
:200A280000208E40D9400017003FF00620000526008000B4109CEC04200B883A110000172B
:200A300000228501008000B4109CEB0411000017014000B4294A14040020EB41DEFFFB045F
:200A3800DCC0031504C000B4DC800215DC400115DC000015DFC004152821883A9CD767043B
:200A40002025883A002376C0988002171440011700BFFF0488A2703A8C21C83A8403FBC40E
:200A48008020D33A0083FFC4843FFFC48020933A1400060E000B883A9009883A002219809D
:200A500098C002171C47883A10C00A269009883A002379000005883ADFC00417DCC00317C2
:200A5800DC800217DC400117DC000017DEC00504F800283A040BC83A9009883A00221980BA
:200A600000FFFFC410C00D2600C000F418E39F0418800017990002178C23C83A8C4000542D
:200A68001421C83A244001159009883A1C0000150023790000800044003FE706000B883AD8
:200A70009009883A0022198099000217014003C41107C83A28FFDD0E014000B4295CED04FF
:200A78002940001718C0005420C0011500C000F41145C83A18E39F0418800015003FD3064D
:200A800028004126DEFFFD04DC400115DC0000152023883A2821883ADFC00215002376C0A7
:200A880081FFFF1700BFFF84010000B481BFFE043884703A21176704308B883A2A40011777
:200A90002200021700FFFF0448C6703A2A00572628C0011539C0004C3800091E823FFE1732
:200A980022400204320DC83A31C002171205883A3A406526320003173A00031541C00215F7
:200AA00028CF883A39C0011739C0004C38003A2610C0005430C001153087883A188000153F
:200AA80000C07FC4188019361004D0FA01C000442140011710C0004418C7883A1005D0BA94
:200AB00018C7883A18C7883A1907883A3884983A19C000171A3FFE041144B03A32000315A0
:200AB80031C002152080011519800015398003158809883ADFC00217DC400117DC000017AF
:200AC000DEC0030400237901F800283A100AD27A00C0010419404A36100AD1BA28C00E4497
:200AC80018C7883A29400E0418C7883A18C7883A1909883A20C0001701C000B4213FFE04FE
:200AD00039D7670420C0442601FFFF041940011729CA703A1140022E18C0021720FFFB1E86
:200AD800190003173100031530C002152180021519800315003FDE0629C0021710C5883A56
:200AE00000C000B418D7690438C03B262A000317114000543087883A3A00031541C0021501
:200AE8003140011518800015003FBD0639C0004C10C5883A3800071E81FFFE1731CDC83AEA
:200AF00030C003173140021711C5883A28C003151940021510C0005430C0011500C000B4AC
:200AF80018DCEE0418C000172180021510FFC036008000F410A39604114000178809883AD0
:200B000000228DC0003FBA0628C9883A210001172100004C2000391E29C002172900031752
:200B08001885883A10C000543900031521C0021530C00115308D883A30800015003FAC06C6
:200B100000C005041940153628C0170418C7883A294016C4003FB406280BD0BA00C00044B7
:200B180038800117194A983A2007883A2884B03A38800115003FBB062180051521800415F6
:200B200010C0005431C0031531C0021530C00115308D883A30800015003F950600C0150483
:200B280019400536100AD33A28C01BC418C7883A29401B84003F9C0600C0550419400536F4
:200B3000100AD3FA28C01E0418C7883A29401DC4003F950600C1550419400536100AD4BA99
:200B380028C01F4418C7883A29401F04003F8E0600C03F8401401F84003F8B0610C00054F7
:200B400030C00115308D883A30800015003F7806DEFFFD042805883ADC000015040000F4D8
:200B4800DC400115300B883A842397042023883A380D883A1009883ADFC0021580000015EA
:200B5000002361C000FFFFC410C00526DFC00217DC400117DC000017DEC00304F800283AA6
:200B580080C00017183FF92688C00015003FF7062880030B10C0008C1800411EDEFFEC04C1
:200B6000DC000F152821883A2940038FDC401015DFC01315DCC01215DC8011152023883A1D
:200B680028001C16D80D883A0022F8C010001816D880011700E0001410BC000C14C800201C
:200B700010C0372680C0030B18C2001480C0030D00C8000410C0521E8140038F8809883AFA
:200B78000022FE8010004C268080030B80C010C480C00015108000548080030D008000440C
:200B800080C004158080051504810004000007068080030B10C0200C18001F1E0481000464
:200B8800108200148080030D0027883A900B883A8809883A0020F78010002C2680C0030BB7
:200B9000010000B42101670489000F1518C0201480C0030D808000158080041584800515AE
:200B980098001A1EDFC01317DCC01217DC801117DC401017DC000F17DEC01404F800283A06
:200BA000288010C428800015288004150080004428800515F800283A04801004003FE0069E
:200BA80081000A1700C000B418C8B10420FFC51E8080030B04810004848013151484B03A3B
:200BB0008080030D0027883A003FD8068140038F8809883A0022FE80103FE2268080030B64
:200BB800108000548080030D003FDE068080030B10C0800C183FDB1E1080009480C010C414
:200BC0008080030D0080004480C0001580C0041580800515003FD30604810004003FC306D0
:200BC8000027883A04810004003FC006DEFFFD042805883ADC000015040000F4DC400115AE
:200BD000300B883A842397042023883A380D883A1009883ADFC002158000001500237F00F2
:200BD80000FFFFC410C00526DFC00217DC400117DC000017DEC00304F800283A80C000170B
:200BE000183FF92688C00015003FF706DEFFFD042805883ADC000015040000F4DC400115FE
:200BE800842397042023883A300B883A1009883ADFC00215800000150023364000FFFFC428
:200BF00010C00526DFC00217DC400117DC000017DEC00304F800283A80C00017183FF9263F
:200BF80088C00015003FF706DEFFFD04DC000015040000F4DC400115842397042023883A04
:200C00002809883ADFC00215800000150023450000FFFFC410C00526DFC00217DC40011785
:200C0800DC000017DEC00304F800283A80C00017183FF92688C00015003FF70620001B1623
:200C1000000F883A28001616200D883A29001A2E0080080400C000440000010610000D2665
:200C1800294B883A10BFFFC418C7883A293FFB360005883A180007260005883A314002363E
:200C2000314DC83A10C4B03A1806D07A280AD07A183FFA1E380001260085C83AF800283AE3
:200C2800014BC83A39C0005C003FE7060109C83A01C00044003FE30600C00044003FEE066D
:200C300020001716000F883A2005883A280012162900162E0180080400C00044000001064A
:200C380030000A26294B883A31BFFFC418C7883A293FFB36180005261806D07A11400136E6
:200C40001145C83A280AD07A183FFB1E380001260085C83AF800283A014BC83A003FEC0691
:200C48000109C83A01C00044003FE70600C00044003FF106200D883A2900152E2800141668
:200C50000080080400C000440000020610000E2628000516294B883A10BFFFC418C7883AFC
:200C5800293FFA36180008260005883A31400236314DC83A10C4B03A1806D07A280AD07A0C
:200C6000183FFA1EF800283A0005883AF800283A00C00044003FF4062005883A2900122EFD
:200C6800280011160180080400C000440000020630000C2628000516294B883A31BFFFC4F6
:200C700018C7883A293FFA36180006261806D07A114001361145C83A280AD07A183FFB1EB3
:200C7800F800283AF800283A00C00044003FF706DEFFFE04DFC00115DF000015D839883A0D
:200C8000D0A0091710000326D0A00917103EE83A00000106D0A6AC04E037883ADFC00117CE
:200C8800DF000017DEC00204F800283ADEFFFB04DFC00415DF000315DF000304E13FFF15B3
:200C9000E0BFFF1710000616E0BFFF1710C00324008000B4109873041885883A00000106FE
:200C98000005883AE0BFFD15E0BFFD1710001926E0BFFD1710800017108004171000062681
:200CA000E0BFFD171080001710800417E13FFD17103EE83A000001060005883AE0BFFE150B
:200CA800E13FFF1700238EC0E0BFFE171000070E00231F001007883AE0BFFE170085C83A56
:200CB0001880001500BFFFC4000007060005883A0000050600231F001007883A0080144423
:200CB8001880001500BFFFC4E037883ADFC00117DF000017DEC00204F800283ADEFFFC048C
:200CC000DF000315DF000304E13FFD15E17FFE15E1BFFF15E0BFFF17E037883ADF0000175A
:200CC800DEC00104F800283ADEFFFE04DFC00115DF000015D839883AD0A0091710000326EB
:200CD000D0A00917103EE83A00000106D0A6AC04E037883ADFC00117DF000017DEC00204AD
:200CD800F800283ADEFFFB04DFC00415DF000315DF000304E13FFE15E17FFF15E0BFFE17D6
:200CE00010000616E0BFFE1710C00324008000B4109873041885883A000001060005883A9D
:200CE800E0BFFD15E0BFFD1710001026E0BFFD17108000171080081710000726E0BFFD1749
:200CF0001080001710800817E17FFF17E13FFD17103EE83A00000A06E0BFFF1700C80004E3
:200CF80010C001150005883A00000506002332801007883A008014441880001500BFFFC46F
:200D0000E037883ADFC00117DF000017DEC00204F800283ADEFFFE04DFC00115DF000015C7
:200D0800D839883AD0A0091710000326D0A00917103EE83A00000106D0A6AC04E037883A29
:200D1000DFC00117DF000017DEC00204F800283ADEFFED04DFC01215DF001115DF0011048B
:200D1800E13FFF15E0BFFF1710000616E0BFFF1710C00324008000B4109873041885883A48
:200D2000000001060005883AE0BFEF15E0BFEF1710000E26E0BFEF1710800017108008175E
:200D28001000021E0080004400000D06E0BFF004100B883AE13FFF1700233640E0BFF117BE
:200D30001088002010803FCC00000506002341401007883A00801444188000150005883A7C
:200D3800E037883ADFC00117DF000017DEC00204F800283ADEFFFC04DF000315DF0003045D
:200D4000E13FFD15E17FFE15E1BFFF15E0FFFE17E0BFFD1718800C2600000806E0BFFE1707
:200D480010C00104E0FFFE15E0FFFD1719000104E13FFD1518C0001710C00015E0FFFE17B9
:200D5000E0BFFF1718BFF51E0001883AE037883ADF000017DEC00104F800283ADEFFFE0476
:200D5800DFC00115DF000015D839883A018000B4319CF904014000B429565E04010000B475
:200D6000211CF90400234F40018000B431809104014000B429400804010000B421000804C0
:200D680000234F40018000B431965E04014000B429562504010000B42116250400234F40F7
:200D700000247800002496800001883AE037883ADFC00117DF000017DEC00204F800283A46
:200D7800DEFFFE04DFC00115DF000015D839883AD0A0091710000326D0A00917103EE83A37
:200D800000000106D0A6AC04E037883ADFC00117DF000017DEC00204F800283ADEFFF904C8
:200D8800DFC00615DF000515DF000504E13FFD15E17FFE15E1BFFF15E03FFB15E0BFFD1775
:200D900010000616E0BFFD1710C00324008000B4109873041885883A000001060005883AED
:200D9800E0BFFC15E0BFFC1710001026E0BFFC17108000171080071710000926E0BFFC179B
:200DA0001080001710800717E1BFFF17E17FFE17E13FFC17103EE83AE0BFFB150000050656
:200DA80000BFDE84E0BFFB150000020600BFEBC4E0BFFB15E0BFFB171000070E00235E00DF
:200DB0001007883AE0BFFB170085C83A1880001500BFFFC4E0BFFB15E0BFFB17E037883AAA
:200DB800DFC00117DF000017DEC00204F800283ADEFFFD04DFC00215DF000115DF00010403
:200DC0000009883A0023B6800001883A0023BA00018000B431965404014000B4295654042F
:200DC800010000B4211654040024D00000248A80010000B42112420400255000D0A6AD17C8
:200DD000D0E6AE17D126AF17200D883A180B883A1009883A00202900E0BFFF1501000044DB
:200DD800002322C0E13FFF1700255140DEFFFE04DF000115DF000104E13FFF150001883A5B
:200DE000E037883ADF000017DEC00104F800283ADEFFFE04DF000115DF000104E13FFF153B
:200DE8000001883AE037883ADF000017DEC00104F800283ADEFFFE04DFC00115DF000015D4
:200DF000D839883AD0A0091710000326D0A00917103EE83A00000106D0A6AC04E037883A41
:200DF800DFC00117DF000017DEC00204F800283ADEFFF904DFC00615DF000515DF000504BB
:200E0000E13FFD15E17FFE15E1BFFF15E0BFFD1710000616E0BFFD1710C00324008000B4BC
:200E0800109873041885883A000001060005883AE0BFFB15E0BFFB1710002226E0BFFB1715
:200E100010800217108000CC108000601000181EE0BFFB1710800017108005171000142639
:200E1800E0BFFB171080001710800517E0FFFF17180D883AE17FFE17E13FFB17103EE83AC3
:200E2000E0BFFC15E0BFFC171000070E00237B401007883AE0BFFC170085C83A188000158E
:200E280000BFFFC400000C06E0BFFC1700000A0600237B401007883A008003441880001529
:200E30000000040600237B401007883A008014441880001500BFFFC4E037883ADFC001174A
:200E3800DF000017DEC00204F800283ADEFFFE04DF000115DF000104E13FFF15E0BFFF1705
:200E4000108000D010000D1E008000B410987304E0FFFF1718C0032410C5883A1080020483
:200E480010000015008000B410987304E0FFFF1718C0032410C5883A100000150001883A9F
:200E5000E037883ADF000017DEC00104F800283ADEFFF904DF000615DF000604E13FFF15C5
:200E58000005303AE0BFFE15E0FFFE1700BFFF841884703A1001703AE0BFFE17E0BFFB15BF
:200E6000D0A00A1710C000C400BFFF041884703AD0A00A15D0E00A17E0BFFF171887883ACF
:200E6800008001341080000410C0062EE0BFFB17E0BFFA15E0BFFA171001703A00BFFFC4D1
:200E700000000B06D0A00A17E0BFFD15D0E00A17E0BFFF171885883AD0A00A15E0BFFB17EA
:200E7800E0BFFC15E0BFFC171001703AE0BFFD17E037883ADF000017DEC00104F800283ABE
:200E8000DEFFFE04DFC00115DF000015D839883AD0A0091710000326D0A00917103EE83A2E
:200E880000000106D0A6AC04E037883ADFC00117DF000017DEC00204F800283ADEFFF904BF
:200E9000DFC00615DF000515DF000504E13FFD15E17FFE15E1BFFF15E0BFFD17100006166F
:200E9800E0BFFD1710C00324008000B4109873041885883A000001060005883AE0BFFB1561
:200EA000E0BFFB1710002126E0BFFB1710800217108000CC10001826E0BFFB1710800017CE
:200EA8001080061710001426E0BFFB171080001710800617E0FFFF17180D883AE17FFE17DD
:200EB000E13FFB17103EE83AE0BFFC15E0BFFC171000070E0023A0001007883AE0BFFC17AB
:200EB8000085C83A1880001500BFFFC400000C06E0BFFC1700000A060023A0001007883AF4
:200EC0000080034418800015000004060023A0001007883A008014441880001500BFFFC4F1
:200EC800E037883ADFC00117DF000017DEC00204F800283ADEFFFD04DFC00215DF000115FD
:200ED000DF000104E13FFF15D1600604E13FFF1700248040E037883ADFC00117DF0000170F
:200ED800DEC00204F800283ADEFFFD04DFC00215DF000115DF000104E13FFF1500251740DF
:200EE000008000441001703A0001883AE037883ADFC00117DF000017DEC00204F800283A2C
:200EE800DEFFFE04DFC00115DF000015D839883A01800044000B883A010000B42118DD042E
:200EF0000023D500010000B42118D3040023B3400001883A0001883AE037883ADFC00117F9
:200EF800DF000017DEC00204F800283ADEFFFA04DFC00515DF000415DF000404E13FFD1541
:200F0000E17FFE15E1BFFF15E0BFFD1710800017E0BFFC15E0BFFC1710C00A04E0BFFD175D
:200F080010800217100F883AE1BFFF17E17FFE171809883A00242140E037883ADFC001171C
:200F1000DF000017DEC00204F800283ADEFFFA04DFC00515DF000415DF000404E13FFD1528
:200F1800E17FFE15E1BFFF15E0BFFD1710800017E0BFFC15E0BFFC1710C00A04E0BFFD1745
:200F200010800217100F883AE1BFFF17E17FFE171809883A00244300E037883ADFC0011722
:200F2800DF000017DEC00204F800283ADEFFFC04DFC00315DF000215DF000204E13FFF1512
:200F3000E0BFFF1710800017E0BFFE15E0BFFE1710C00A04E0BFFF1710800217100B883AC6
:200F38001809883A00240BC0E037883ADFC00117DF000017DEC00204F800283ADEFFFA0468
:200F4000DFC00515DF000415DF000404E13FFD15E17FFE15E1BFFF15E0BFFD171080001746
:200F4800E0BFFC15E0BFFC1710800A04E1BFFF17E17FFE171009883A00241240E037883A34
:200F5000DFC00117DF000017DEC00204F800283ADEFFFA04DFC00515DF000415DF00040463
:200F5800E13FFD15E17FFE15E1BFFF15E0BFFD1700C0004410C00815E0BFFD171080001722
:200F6000108001041007883AE0BFFD171080081718800035E0BFFE17E0FFFF17D80000153E
:200F6800E1FFFD17018000B4318F8404180B883A1009883A002499C0E0BFFD1710000915DA
:200F7000E0BFFD1710800204D0E6B117E1FFFD17018000B431900704180B883A1009883AE5
:200F7800002465401000040EE0FFFD1700A0003410BFFFC4188001150001883AE037883ACB
:200F8000DFC00117DF000017DEC00204F800283ADEFFF804DF000715DF000704E13FFF15B4
:200F8800E0BFFF17E0BFFB15E0BFFB1710800017E0BFFC15E0BFFC171080010410800037CF
:200F9000E0BFFD15E0BFFD171080C00C10006D26E0BFFD171080400C1000352600800074F0
:200F9800E0BFF915E0BFFB1710800A17108000441081FFCCE0BFFE15E0BFFB1710C00B17A5
:200FA000E0BFFE1718801526E0BFFC1710800037E0BFF915E0BFF91710A0000C10001126D2
:200FA800E0BFFB1710800A17E0FFF9171809883AE0FFFB171885883A10800E0411000005ED
:200FB000E0BFFB1710800A171080004410C1FFCCE0BFFB1710C00A15003FE2060001883AC5
:200FB800000001060001883AE0BFF91710BFFFEC10000F26E0BFFB1710C0081700BFFF84BF
:200FC0001886703AE0BFFB1710C00815E0BFFC17108001041007883AE0BFFB1710800817AB
:200FC80018800035E0BFFC171080010410800037E0BFFD171080800C103FBE26E0BFFD1779
:200FD0001004D43AE0BFFA1500001406E0BFFC17E0FFFB1718C00D17E13FFB1720C7883A9D
:200FD80018C20E0418C0000318C03FCC18C0201C18FFE00410C00035E0BFFB1710800D17D6
:200FE0001080004410C1FFCCE0BFFB1710C00D15E0BFFA1710BFFFC4E0BFFA15E0BFFA173E
:200FE80010000526E0BFFB1710C00D17E0BFFB1710800C1718BFE51EE0BFFA17103F9D2609
:200FF000E0BFFB1710C0081700BFFF441886703AE0BFFB1710C00815E0BFFB171080001701
:200FF800108001041007883AE0BFFB171080081718800035E0BFFC17108001041080003730
:20100000003F8C060001883A0001883AE037883ADF000017DEC00104F800283ADEFFF804D4
:20100800DF000715DF000704E13FFB15E0BFFB17E0BFF915E0BFF91710800017108001046A
:2010100010800037E0BFFA15E0BFFA171081000C10000B26E0BFF9171080001710800104D2
:201018001007883AE0BFF917108008171081001418800035E0BFF9171000091500000A0622
:20102000E0BFF91710C0091700A0003410BFFF0410C00536E0BFF9171080091710C00044ED
:20102800E0BFF91710C00915D0A6B117E037883ADF000017DEC00104F800283ADEFFFD0423
:20103000DF000215DF000204E13FFE15E17FFF1500000506E0BFFF171090000C100002267A
:2010380000BFFD4400000B06E0BFFE1710C00D17E0BFFE1710800C1718800526E0BFFE1701
:2010400010C00917E0BFFE171080011718BFF1360005883AE037883ADF000017DEC001040D
:20104800F800283ADEFFFA04DF000515DF000504E13FFD15E17FFE15E1BFFF1500BFF9C49D
:20105000E0BFFB15E0BFFE1710DA80601800031E109A80A01000181E00002906E0BFFD1728
:2010580010C0011700A0003410BFFFC418802126E0BFFF1710800017E0BFFC15E0BFFC178D
:20106000108000901000061EE0FFFC1700A0003410BFFFC418800226E0BFFC17000002064A
:2010680000A0003410BFFF84E0FFFD1718800115E03FFB1500000F06E0BFFD1710C00117C2
:2010700000A0003410BFFFC418800C26E0BFFD1710C00917E0BFFD17108001171885803ADB
:2010780010C03FCCE0BFFF1710C00015E03FFB15000002060001883A000001060001883A1F
:20108000E0BFFB17E037883ADF000017DEC00104F800283ADEFFF304DFC00C15DF000B1540
:20108800DF000B04E13FFC15E17FFD15E1BFFE15E1FFFF15E0BFFD17E0BFF5150000470667
:20109000E0BFFC1710800A17E0BFF715E0BFFC1710800B17E0BFF815E0FFF717E0BFF81787
:2010980018800536E0FFF717E0BFF8171885C83AE0BFF6150000040600C20004E0BFF81703
:2010A0001885C83AE0BFF615E0BFF61710001E26E0FFFE17E0BFF6171880022EE0BFFE17CB
:2010A800E0BFF615E0BFFC1710C00E04E0BFF8171885883AE1BFF617100B883AE13FF51727
:2010B00000218680E0FFF517E0BFF6171885883AE0BFF515E0FFFE17E0BFF6171885C83A1B
:2010B800E0BFFE15E0FFF817E0BFF6171885883A10C1FFCCE0BFFC1710C00B15E0BFFE177B
:2010C00000BFCF16000001060001883AE0FFF517E0BFFD171880141EE0BFFF171090000CD9
:2010C8001000131E0001883AE0BFFC1710C00A17E0BFF7171880051EE0BFFC1710C0091757
:2010D000E0BFFC171080011718BFF736E0BFFC1710C00A17E0BFF71718800726E0BFFE17D9
:2010D80000BFB716000005060001883A000003060001883A000001060001883AE0FFF5171D
:2010E000E0BFFD17188018260005303AE0BFFB15E0FFFB1700BFFF841884703A1001703A15
:2010E800E0BFFB17E0BFFA15E0BFFC171080081710C00054E0BFFC1710C00815E0BFFC17B3
:2010F00010800017108001041007883AE0BFFC171080081718800035E0BFFA17E0BFF91540
:2010F800E0BFF9171001703AE0FFF517E0BFFD1718800426E0FFF517E0BFFD171885C83AD1
:2011000000000606E0BFFF171090000C1000022600BFFD440000010600BFFEC4E037883AC9
:20110800DFC00117DF000017DEC00204F800283ADEFFF304DFC00C15DF000B15DF000B049B
:20111000E13FFC15E17FFD15E1BFFE15E1FFFF15E03FF515E0BFFD17E0BFF71500003706B1
:20111800E0BFFC1710800C17E0BFF915E0BFFC1710800D17E0BFF515E0FFF917E0BFF517FC
:201120001880062EE0FFF517E0BFF9171885C83A10BFFFC4E0BFF61500000B06E0BFF517B2
:201128001000052600C20004E0BFF9171885C83AE0BFF6150000040600C1FFC4E0BFF91771
:201130001885C83AE0BFF615E0BFF61710001E26E0FFFE17E0BFF6171880022EE0BFFE173A
:20113800E0BFF615E0BFFC1710C20E04E0BFF9171885883AE1BFF617E17FFD171009883A4D
:2011400000218680E0FFFD17E0BFF6171885883AE0BFFD15E0FFFE17E0BFF6171885C83A7A
:20114800E0BFFE15E0FFF917E0BFF6171885883A10C1FFCCE0BFFC1710C00C15E0BFFE17E8
:2011500000BFC716000001060001883A0005303AE0BFFB15E0FFFB1700BFFF841884703A82
:201158001001703AE0BFFB17E0BFFA15E0BFFC171080081710C00094E0BFFC1710C00815F9
:20116000E0BFFC1710800017108001041007883AE0BFFC171080081718800035E0BFFA17CA
:20116800E0BFF815E0BFF8171001703AE0BFFE170080100EE0BFFF171090000C1000101E61
:201170000001883AE0BFFC1710C00D17E0BFF5171880051EE0BFFC1710C00917E0BFFC173C
:201178001080011718BFF736E0BFFC17108009171000051EE0BFFE1700BFD01600000306B4
:201180000001883A000001060001883AE0FFFD17E0BFF71718800426E0FFFD17E0BFF717C0
:201188001885C83A00000606E0BFFF171090000C1000022600BFFD440000010600BFFEC47B
:20119000E037883ADFC00117DF000017DEC00204F800283ADEFFF504DF000A15DF000A04FA
:20119800E13FFC15E17FFD15E1BFFE15E1FFFF15E03FF615D0A6B11710003C26E0BFFC1761
:2011A00010003826E0BFFC17E0FFFE1710C00315E0BFFC17E0FFFF1710C005150005303A33
:2011A800E0BFF915E0FFF91700BFFF841884703A1001703AE0BFF917E0BFF815D0A6B217AE
:2011B000E0BFF615E0FFFD17E0BFF6171885883A10C00044E0BFFC1710C00215E0BFFC1718
:2011B80010C00217E0BFF6171880042EE0BFFC1700C0004410C0040500000206E0BFFC176F
:2011C00010000405E0BFFC17D0E00C04E0FFFA15E0BFFB15E0BFFB17E0FFFA1710C0011560
:2011C800E0BFFA1710C00017E0BFFB1710C00015E0BFFA1710800017E0FFFB1710C00115AC
:2011D000E0BFFA17E0FFFB1710C00015E0BFF817E0BFF715E0BFF7171001703A0005883AF1
:2011D8000000030600BFFA840000010600BFDE84E037883ADF000017DEC00104F800283ABD
:2011E000DEFFFE04DF000115DF000104E03FFF1500000506E0BFFF171000003BE0BFFF1744
:2011E80010800804E0BFFF15E0BFFF1710820030103FF81E0001883AE037883ADF0000172A
:2011F000DEC00104F800283ADEFFFE04DFC00115DF000015D839883AD0A0091710000326BE
:2011F800D0A00917103EE83A00000106D0A6AC04E037883ADFC00117DF000017DEC0020480
:20120000F800283ADEFFFA04DFC00515DF000415DF000404E13FFE15E17FFF15E0BFFE17A6
:2012080010000326E0BFFE17108002171000061E00247C801007883A00800584188000154D
:2012100000BFFA8400001306E0BFFE17E0FFFF17E0FFFC15E0BFFD15E0BFFD17E0FFFC1779
:2012180010C00115E0BFFC1710C00017E0BFFD1710C00015E0BFFC1710800017E0FFFD1753
:2012200010C00115E0BFFC17E0FFFD1710C000150005883AE037883ADFC00117DF000017F1
:20122800DEC00204F800283ADEFFFD04DFC00215DF000115DF000104008000B41096240439
:20123000E0BFFF1500000606E0BFFF1710800017103EE83AE0BFFF1710BFFF04E0BFFF15D9
:20123800E0FFFF17008000B41096250418BFF62E0001883AE037883ADFC00117DF0000175A
:20124000DEC00204F800283ADEFFFD04DFC00215DF000115DF000104008000B41096240421
:20124800E0BFFF1500000606E0BFFF1710800017103EE83AE0BFFF1710BFFF04E0BFFF15C1
:20125000E0FFFF17008000B41096250418BFF62E0001883AE037883ADFC00117DF00001742
:20125800DEC00204F800283ADEFFFE04DFC00115DF000015D839883A014400040009883A09
:2012600000253D400001883AE037883ADFC00117DF000017DEC00204F800283ADEFFF904AB
:20126800DFC00615DF000515DF000504E13FFC15E17FFD15E1BFFE15E1FFFF15E080021708
:20127000D8800015E1FFFF17E1BFFE17E17FFD17E13FFC170024B4C0E037883ADFC0011777
:20127800DF000017DEC00204F800283ADEFFF904DF000615DF000604E13FFE15E17FFF15FE
:20128000E0BFFF17E0BFFA150005303AE0BFFB15E0FFFB1700BFFF841884703A1001703A99
:20128800E0BFFB17E0BFFC1500C00044E0BFFA171884983A1007883AD0A6B0171884B03A27
:20129000D0A6B015D0A6B017100170FAE0BFFC17E0BFFD15E0BFFD171001703A0005883AB3
:201298000001883AE037883ADF000017DEC00104F800283ADEFFF904DF000615DF000604EA
:2012A000E13FFE15E17FFF15E0BFFF17E0BFFA150005303AE0BFFB15E0FFFB1700BFFF84D3
:2012A8001884703A1001703AE0BFFB17E0BFFC1500C00044E0BFFA171884983A0084303AB4
:2012B0001007883AD0A6B0171884703AD0A6B015D0A6B017100170FAE0BFFC17E0BFFD156C
:2012B800E0BFFD171001703A0005883A0001883AE037883ADF000017DEC00104F800283A52
:2012C000DEFFFC04DF000315DF000304E13FFE15E17FFF15000530FAE0BFFD1500C00044C9
:2012C800E0BFFF171884983A1007883AE0BFFD171884703A1004C03A10803FCCE037883A8F
:2012D000DF000017DEC00104F800283ADEFFF504DFC00A15DF000915DF000904E13FFC155D
:2012D800E17FFD15E1BFFE15E1FFFF1500BFFA84E0BFF715E0BFFD17E0BFF815E0BFF817E8
:2012E000108008081000271E0005303AE0BFFB15E0FFFB1700BFFF841884703A1001703AA7
:2012E800E0BFFB17E0BFFA15008000F410A3A904E0FFF817180690FA10C5883AE0FFFE1792
:2012F00010C00015008000F410A3A904E0FFF817180690FA10C5883A10800104E0FFFF176E
:2012F80010C00015E0BFFE1710000526E0BFF817100B883AE13FFC1700249EC000000406B8
:20130000E0BFF817100B883AE13FFC170024A740E0BFF715E0BFFA17E0BFF915E0BFF9174D
:201308001001703AE0BFF717E037883ADFC00117DF000017DEC00204F800283ADEFFF904FF
:20131000DFC00615DF000515DF000504E13FFC15E17FFD15E1BFFE15E1FFFF15E1BFFF1722
:20131800E17FFE17E13FFD170024E7C0E0BFFB15E0BFFB1710001C16008000B4109873044C
:20132000E0FFFB1718C0032410C5883A10C00017E0BFFC1710C00015008000B41098730455
:20132800E0FFFB1718C0032410C5883A1080010410C00017E0BFFC1710C00115008000B4D6
:2013300010987304E0FFFB1718C0032410C5883A1080020410C00017E0BFFC1710C00215E1
:20133800E13FFB1700238EC00001883AE037883ADFC00117DF000017DEC00204F800283AAB
:20134000DEFFFB04DFC00415DF000315DF000304E13FFD15E17FFE15E1BFFF1501C07FC4BF
:2013480001800044E17FFD17010000B4211876040024C3C001C07FC4000D883AE17FFE17F5
:20135000010000B4211873040024C3C001C07FC401800044E17FFF17010000B421187904C7
:201358000024C3C00001883AE037883ADFC00117DF000017DEC00204F800283ADEFFFE04A8
:20136000DFC00115DF000015D839883AD0A0091710000326D0A00917103EE83A0000010621
:20136800D0A6AC04E037883ADFC00117DF000017DEC00204F800283ADEFFFD04DF000215E7
:20137000DF000204E13FFF15E0BFFF171080021710D00034E0BFFF1710C00215E03FFE1504
:2013780000001D06008000B410987304E0FFFE1718C0032410C5883A10C00017E0BFFF17B9
:20138000108000171880111E008000B410987304E0FFFE1718C0032410C5883A108002046C
:20138800108000171000090EE0BFFE1710C00324008000B4109873041887883AE0BFFF1763
:201390001880022600BFFCC400000806E0BFFE1710800044E0BFFE15D0A008171007883A4E
:20139800E0BFFE1718BFDF2E0005883AE037883ADF000017DEC00104F800283ADEFFF60433
:2013A000DFC00915DF000815DF000804E13FFD15E17FFE15E1BFFF1500BFFFC4E0BFF91501
:2013A80000BFFB44E0BFFA15E03FFB15D1600604E13FFD1700251980E0BFF815E0BFF817C3
:2013B0001000051EE13FFD1700252280E0BFF81500800044E0BFFB15E0BFF81710002926C3
:2013B800E13FF81700253300E0BFF915E0BFF9171000030EE0BFF917E0BFFA15000023068B
:2013C000E0BFF91710C00324008000B4109873041885883AE0BFFC15E0FFFE17009000344D
:2013C80010BFFFC41886703AE0BFFC1710C00215E0BFFB171000051EE13FFC170024DB80FC
:2013D000E0BFFA15E0BFFA1710001016E0BFF8171080031710000826E0BFF817108003177B
:2013D800E1FFFF17E1BFFE17E17FFD17E13FFC17103EE83A000001060005883AE0BFFA15B7
:2013E0000000020600BFFB44E0BFFA15E0BFFA171000090EE13FF91700238EC00024D7C006
:2013E8001007883AE0BFFA170085C83A1880001500BFFFC400000106E0BFF917E037883A17
:2013F000DFC00117DF000017DEC00204F800283ADEFFFA04DF000515DF000504E13FFF1542
:2013F8000005303AE0BFFC15E0FFFC1700BFFF841884703A1001703AE0BFFC17E0BFFB1520
:20140000E0BFFF17E0BFFD15E0BFFD1710800017E0FFFD1718C0011710C00115E0BFFD1790
:2014080010800117E0FFFD1718C0001710C00015E0BFFD17E0FFFD1710C00115E0BFFD1716
:20141000E0FFFD1710C00015E0BFFB17E0BFFE15E0BFFE171001703A0001883AE037883A76
:20141800DF000017DEC00104F800283ADEFFFB04DFC00415DF000315DF000304D0A00C17BD
:20142000E0BFFD15D0A6B21710800044D0A6B21500002E06E0BFFD1710800017E0BFFE156B
:20142800E0BFFD171080040310803FCC10000426D0A6B2171000021EE0BFFD17100004054A
:20143000E0BFFD1710800217D0E6B21718801D36E0BFFD171080040310803FCC1000191EAA
:20143800E0BFFD1710800317E0FFFD1718C005171809883A103EE83AE0BFFF15E0BFFF1795
:201440001000031EE13FFD170024FD0000000D06E0BFFD1710C00217E0BFFF171887883A41
:20144800E0BFFD1710C00215E0BFFD1710C00217D0A6B2171880032EE0BFFD1700C000448F
:2014500010C00405E0BFFE17E0BFFD15E0FFFD17D0A00C0418BFCF1E0001883A0001883A81
:20145800E037883ADFC00117DF000017DEC00204F800283ADEFFFF04DF000015D839883A49
:20146000000170FA0001883AE037883ADF000017DEC00104F800283ADEFFFA04DFC00515DE
:20146800DF000415DF000404E13FFE15E17FFF15E0BFFF1710800017E0BFFC15E13FFE179D
:2014700000204FC010800044E0BFFD1500000D06E0BFFC1710800217E0FFFD17180D883A60
:20147800E17FFE171009883A002554C01000021EE0BFFC1700000706E0BFFC171080001783
:20148000E0BFFC15E0FFFC17E0BFFF1718BFF01E0005883AE037883ADFC00117DF000017C3
:20148800DEC00204F800283ADEFFFB04DFC00415DF000315DF000304E13FFF15D0A0041716
:20149000E0BFFD1500003106E0BFFD17108002171009883A00204FC0E0BFFE15E0BFFD1789
:2014980010C00217E0BFFE1710BFFFC41885883A1080000310803FCC1080201C10BFE004F9
:2014A00010800BD81000031EE0BFFE1710BFFFC4E0BFFE15E0BFFE17E0FFFF171885883A88
:2014A8001080000310803FCC1080201C10BFE00410800BE01000081EE0BFFE17E0FFFF171D
:2014B0001885883A1080000310803FCC1080201C10BFE00410000A1EE0BFFD17108002177C
:2014B800E0FFFE17180D883AE17FFF171009883A002554C01000021EE0BFFD1700000706BF
:2014C000E0BFFD1710800017E0BFFD15E0FFFD17D0A0040418BFCC1E0005883AE037883A35
:2014C800DFC00117DF000017DEC00204F800283ADEFFFC04DF000315DF000304E13FFF156B
:2014D00000BFFA04E0BFFE15E03FFD1500001906008000B410987304E0FFFD1718C00324F8
:2014D80010C5883A1080001710000F1E008000B410987304E0FFFD1718C0032410C5883A9D
:2014E000E0FFFF1710C00015D0E00817E0BFFD171880020EE0BFFD17D0A00815E0BFFD17F5
:2014E800E0BFFE1500000606E0BFFD1710800044E0BFFD15E0BFFD1710800810103FE41E42
:2014F000E0BFFE17E037883ADF000017DEC00104F800283ADEFFFB04DF000415DF000404A1
:2014F800E13FFE15E17FFF15E0BFFF17108400701000021E00840004E0BFFF15E0FFFE1715
:20150000E0BFFF171885883AE0BFFD15E0BFFE17E0BFFC1500000506E0BFFC171000603A3B
:20150800E0BFFC1710800804E0BFFC15E0FFFC17E0BFFD1718BFF836E0BFFE17108007CC04
:2015100010000226E0BFFC171000603A0000203A0001883AE037883ADF000017DEC0010498
:20151800F800283ADEFFFE04DF000115DF000104E13FFF15E0BFFF1710BFFE8410C004286B
:2015200018001A1E100690BA008000B4109527041885883A108000171000683A000254DC0D
:20152800000254DC000254EC000254EC000254EC000254DC000254E4000254EC000254DCCB
:20153000000254DC000254EC000254DC000254E4000254EC000254EC000254DC0080004441
:20153800000003060005883A000001060005883AE037883ADF000017DEC00104F800283A29
:20154000200B883A000F883A000D883A0009883A00255C81DEFFFE04000B883ADC00001594
:20154800DFC001152021883A00256E00008000B4109CEB041100001720800F171000012644
:20155000103EE83A8009883A0025860001C000C43980192E2144B03A11C4703A10000F267D
:201558002080000328C0000310C0151E31BFFF8401FFFFC4000004062080000328C0000314
:2015600031BFFFC410C00E1E210000442940004431FFF91E0005883AF800283A20C000174B
:201568002880001718BFEE1E31BFFF04210001042940010439BFF936303FE91E003FF50663
:2015700010C5C83AF800283ADEFFFA04DC000315040000B4841CEB0480C00017DC40041588
:20157800DFC00515188052172023883A1000372610C00117010007C420C00E161A00004411
:201580008800221E18C0008418C7883A18C7883A1200011510C7883A194000150005883AEF
:20158800DFC00517DC400417DC000317DEC00604F800283A008000341080000410002626B5
:2015900001006404D9400015D9800115D9C0021500000000D9400017D9800117D9C0021732
:2015980010001D26810000171000011502000044224052170007883A1240001520805215DA
:2015A0001000621510006315883FDE2618C9883A2109883A1109883A218022150180004449
:2015A8001240621730CC983A4992B03A1240621521C0421501000084893FD21E11006317FC
:2015B000218CB03A11806315003FCE061880530418805215003FC60600BFFFC4003FD006D8
:2015B800DEFFF504DF000915DD400615DC800315DFC00A15DDC00815DD800715DD000515AC
:2015C000DCC00415DC400215DC000115D90000152839883A04800044057FFFC4008000B4DD
:2015C800109CEB04120000174500521744C05204A0001C26A080011715FFFFC4B8000D166B
:2015D000140000448421883A8421883A84402004A463883AA421883AE0001E268080401722
:2015D800E0801C26BDFFFFC4843FFF048C7FFF04BD7FF91E00800034108000041000092624
:2015E000A08001171000301EA080001710003226A009883A98800015000000009D0000176A
:2015E800A03FE41EDFC00A17DF000917DDC00817DD800717DD400617DD000517DCC0041722
:2015F000DC800317DC400217DC000117DEC00B04F800283AA080011780C0001710BFFFC414
:2015F80015C0142680000015183FDE2695C8983AA0806217A58001172084703A10000B2640
:20160000A08063172088703A20000C1E89400017D9000017183EE83AA080011715BFBF1E63
:2016080098800017153FCF26003FBC06183EE83A003FF906A5C00115003FEB068900001748
:20161000183EE83A003FF406A0800017A027883A1029883A003FB6060005883A003FFB064C
:20161800DEFFFD04DF000215DF000204E13FFF150001883AE0BFFF17E0BFFE15E0BFFE17E7
:2016200010000226002AF07000000106002AF0B0003FFF066F535B0A692074665D74696EA1
:201628002058542074696E690000000A6F535B0A692074665D74696E6E614C207220736521
:201630007964616500000A216F535B0A692074665D74696E6F6C432072206B637964616559
:2016380000000A216F535B0A692074665D74696E444D43206E657320000A21746F535B0A15
:20164000692074665D74696E6E6F43206C6F72742072656C62616E652164656C0000000A25
:201648006F535B0A692074665D74696E47505420616E652064656C6200000A3B0000000A0B
:20165000000000437665642F6C756E2F0000006C7665642F61746A2F61755F67305F7472F2
:20165800000000007665642F61746A2F61755F67305F747200000000000000000000000085
:2016600000000000000000000000000000000000000000000000000000000000000000006A
:20166800000000000000000000000000000000000000000000000000000000000000000062
:2016700000000000000000000000000000000000000000000000000000000000000000005A
:20167800000000000000000000000000000000000000000000000000000000000000000052
:201CF800000000000000000000025C6400025CCC00025D340000000000000000000000004D
:201D0000000000000000000000000000000000000000000000000000000259400000000028
:201D08000000000000000000000000000000000000000000000000000000000000000000BB
:201D10000000000000000000000000000000000000000000000000000000000000000000B3
:201D18000000000000000000000000000000000000000000000000000000000000000000AB
:201D200000000000000000000000000100000000ABCD330EE66D12340005DEEC0000000B76
:201D280000000000000000000000000000000000000000000000000000000000000000009B
:201D3000000000000000000000000000000000000000000000000000000000000000000093
:201D380000000000000000000000000000000000000000000000000000000000000000008B
:201D4000000000000000000000000000000000000000000000000000000000000000000083
:201D480000000000000000000000000000000000000000000000000000000000000000007B
:201D5000000000000000000000000000000000000000000000000000000000000000000073
:201D580000000000000000000000000000000000000000000000000000000000000000006B
:201D6000000000000000000000000000000000000000000000000000000000000000000063
:201D680000000000000000000000000000000000000000000000000000000000000000005B
:201D7000000000000000000000000000000000000000000000000000000000000000000053
:201D780000000000000000000000000000000000000000000000000000000000000000004B
:201D8000000000000000000000000000000000000000000000000000000000000000000043
:201D880000000000000000000000000000000000000000000000000000000000000000003B
:201D9000000000000000000000000000000000000000000000000000000000000000000033
:201D980000000000000000000000000000000000000000000000000000000000000000002B
:201DA000000000000000000000000000000000000000000000000000000000000000000023
:201DA80000000000000000000000000000000000000000000000000000000000000000001B
:201DB000000000000000000000000000000000000000000000000000000000000000000013
:201DB80000000000000000000000000000000000000000000000000000000000000000000B
:201DC000000000000000000000000000000000000000000000000000000000000000000003
:201DC8000000000000000000000000000000000000000000000000000000000000000000FB
:201DD0000000000000000000000000000000000000000000000000000000000000000000F3
:201DD8000000000000000000000000000000000000000000000000000000000000000000EB
:201DE0000000000000000000000000000000000000000000000000000000000000000000E3
:201DE8000000000000000000000000000000000000000000000000000000000000000000DB
:201DF0000000000000000000000000000000000000000000000000000000000000000000D3
:201DF8000000000000000000000000000000000000000000000000000000000000000000CB
:201E00000000000000000000000000000000000000025D9C00025D9C00025DA400025DA4C6
:201E080000025DAC00025DAC00025DB400025DB400025DBC00025DBC00025DC400025DC402
:201E100000025DCC00025DCC00025DD400025DD400025DDC00025DDC00025DE400025DE4FA
:201E180000025DEC00025DEC00025DF400025DF400025DFC00025DFC00025E0400025E04F0
:201E200000025E0C00025E0C00025E1400025E1400025E1C00025E1C00025E2400025E24E2
:201E280000025E2C00025E2C00025E3400025E3400025E3C00025E3C00025E4400025E44DA
:201E300000025E4C00025E4C00025E5400025E5400025E5C00025E5C00025E6400025E64D2
:201E380000025E6C00025E6C00025E7400025E7400025E7C00025E7C00025E8400025E84CA
:201E400000025E8C00025E8C00025E9400025E9400025E9C00025E9C00025EA400025EA4C2
:201E480000025EAC00025EAC00025EB400025EB400025EBC00025EBC00025EC400025EC4BA
:201E500000025ECC00025ECC00025ED400025ED400025EDC00025EDC00025EE400025EE4B2
:201E580000025EEC00025EEC00025EF400025EF400025EFC00025EFC00025F0400025F04A8
:201E600000025F0C00025F0C00025F1400025F1400025F1C00025F1C00025F2400025F249A
:201E680000025F2C00025F2C00025F3400025F3400025F3C00025F3C00025F4400025F4492
:201E700000025F4C00025F4C00025F5400025F5400025F5C00025F5C00025F6400025F648A
:201E780000025F6C00025F6C00025F7400025F7400025F7C00025F7C00025F8400025F8482
:201E800000025F8C00025F8C00025F9400025F9400025F9C00025F9C00025FA400025FA47A
:201E880000025FAC00025FAC00025FB400025FB400025FBC00025FBC00025FC400025FC472
:201E900000025FCC00025FCC00025FD400025FD400025FDC00025FDC00025FE400025FE46A
:201E980000025FEC00025FEC00025FF400025FF400025FFC00025FFC000260040002600460
:201EA0000002600C0002600C00026014000260140002601C0002601C000260240002602452
:201EA8000002602C0002602C00026034000260340002603C0002603C00026044000260444A
:201EB0000002604C0002604C00026054000260540002605C0002605C000260640002606442
:201EB8000002606C0002606C00026074000260740002607C0002607C00026084000260843A
:201EC0000002608C0002608C00026094000260940002609C0002609C000260A4000260A432
:201EC800000260AC000260AC000260B4000260B4000260BC000260BC000260C4000260C42A
:201ED000000260CC000260CC000260D4000260D4000260DC000260DC000260E4000260E422
:201ED800000260EC000260EC000260F4000260F4000260FC000260FC000261040002610418
:201EE0000002610C0002610C00026114000261140002611C0002611C00026124000261240A
:201EE8000002612C0002612C00026134000261340002613C0002613C000261440002614402
:201EF0000002614C0002614C00026154000261540002615C0002615C0002616400026164FA
:201EF8000002616C0002616C00026174000261740002617C0002617C0002618400026184F2
:201F00000002618C0002618C0002619400026194000273C4000273C40002594400000000E4
:201F08000000000000000000000232FC000000000000000000000000000261A40000000082
:201F100000000000000261A40000000000000000000261A4000000000000000000000000A3
:201F18000000000000000000000000000000000000000000000000000000000000000000A9
:201F20000000000000000000000000000000000000000000000000000000000000000000A1
:201F2800000000000000000000000000000000000000000000000000000000000000000099
:201F3000000000000000000000000000000000000000000000000000000000000000000091
:201F3800000000000000000000000000000000000000000000000000000000000000000089
:201F4000000000000000000000000000000000000000000000000000000000000000000081
:201F4800000000000000000000000000000000000000000000000000000000000000000079
:201F5000000000000000000000000000000000000000000000000000000000000000000071
:201F5800000000000000000000000000000000000000000000000000000000000000000069
:201F6000000000000000000000000000000000000000000000000000000000000000000061
:201F6800000000000000000000000000000000000000000000000000000000000000000059
:201F7000000259640000000000023CAC00023BEC00023C4C000000000000000000023CFCBB
:201F7800000410B80000000A00000000000000000000000000000000000000000000000073
:201F8000000000000000000000000000000000000000000000000000000000000000000041
:201F8800000000000000000000000000000000000000000000000000000000000000000039
:201F9000000000000000000000000000000000000000000000000000000000000000000031
:201F9800000000000000000000000000000000000000000000000000000000000000000029
:20238000000000000000000000000000000000000000000000000000000259780002597897
:20238800FFFFFFFF00020000000273BC000273BC000261A4000261A4FFFFFFFF00000000CB
:2023900000028FA4FFFFFFFF000273DC000273DC000000000000000000000000000000005A
:20239800000000000000000000000000000000000000000000000000000000000000000025
:2023A00000000000000000000000000000000000000000000000000000000000000000001D
:2023A800000000000000000000000000000000000000000000000000000000000000000015
:2023B00000000000000000000000000000000000000000000000000000000000000000000D
:00000001FF
